{
  "contractName": "CoiniaVy",
  "abi": [
    {
      "constant": true,
      "inputs": [],
      "name": "name",
      "outputs": [
        {
          "name": "",
          "type": "string"
        }
      ],
      "payable": false,
      "type": "function"
    },
    {
      "constant": true,
      "inputs": [],
      "name": "industry",
      "outputs": [
        {
          "name": "",
          "type": "string"
        }
      ],
      "payable": false,
      "type": "function"
    },
    {
      "constant": false,
      "inputs": [
        {
          "name": "newIndustry",
          "type": "string"
        }
      ],
      "name": "setIndustry",
      "outputs": [],
      "payable": false,
      "type": "function"
    },
    {
      "constant": false,
      "inputs": [
        {
          "name": "newManager",
          "type": "address"
        }
      ],
      "name": "addProjectManager",
      "outputs": [],
      "payable": false,
      "type": "function"
    },
    {
      "constant": true,
      "inputs": [],
      "name": "totalSupply",
      "outputs": [
        {
          "name": "",
          "type": "uint256"
        }
      ],
      "payable": false,
      "type": "function"
    },
    {
      "constant": true,
      "inputs": [],
      "name": "decimals",
      "outputs": [
        {
          "name": "",
          "type": "uint8"
        }
      ],
      "payable": false,
      "type": "function"
    },
    {
      "constant": false,
      "inputs": [
        {
          "name": "newHome",
          "type": "string"
        }
      ],
      "name": "setHome",
      "outputs": [],
      "payable": false,
      "type": "function"
    },
    {
      "constant": false,
      "inputs": [
        {
          "name": "newName",
          "type": "string"
        }
      ],
      "name": "changeName",
      "outputs": [],
      "payable": false,
      "type": "function"
    },
    {
      "constant": true,
      "inputs": [],
      "name": "standard",
      "outputs": [
        {
          "name": "",
          "type": "string"
        }
      ],
      "payable": false,
      "type": "function"
    },
    {
      "constant": true,
      "inputs": [
        {
          "name": "",
          "type": "address"
        }
      ],
      "name": "shareholders",
      "outputs": [
        {
          "name": "name",
          "type": "string"
        },
        {
          "name": "id",
          "type": "string"
        },
        {
          "name": "shares",
          "type": "uint256"
        },
        {
          "name": "limited",
          "type": "bool"
        }
      ],
      "payable": false,
      "type": "function"
    },
    {
      "constant": false,
      "inputs": [],
      "name": "resign",
      "outputs": [],
      "payable": false,
      "type": "function"
    },
    {
      "constant": true,
      "inputs": [
        {
          "name": "target",
          "type": "address"
        }
      ],
      "name": "balanceOf",
      "outputs": [
        {
          "name": "balance",
          "type": "uint256"
        }
      ],
      "payable": false,
      "type": "function"
    },
    {
      "constant": true,
      "inputs": [
        {
          "name": "",
          "type": "uint256"
        }
      ],
      "name": "projectManagers",
      "outputs": [
        {
          "name": "",
          "type": "address"
        }
      ],
      "payable": false,
      "type": "function"
    },
    {
      "constant": true,
      "inputs": [],
      "name": "symbol",
      "outputs": [
        {
          "name": "",
          "type": "string"
        }
      ],
      "payable": false,
      "type": "function"
    },
    {
      "constant": true,
      "inputs": [],
      "name": "home",
      "outputs": [
        {
          "name": "",
          "type": "string"
        }
      ],
      "payable": false,
      "type": "function"
    },
    {
      "constant": false,
      "inputs": [
        {
          "name": "newManager",
          "type": "address"
        }
      ],
      "name": "addTreasuryManager",
      "outputs": [],
      "payable": false,
      "type": "function"
    },
    {
      "constant": false,
      "inputs": [
        {
          "name": "target",
          "type": "address"
        },
        {
          "name": "amount",
          "type": "uint256"
        }
      ],
      "name": "transfer",
      "outputs": [],
      "payable": false,
      "type": "function"
    },
    {
      "constant": true,
      "inputs": [
        {
          "name": "",
          "type": "uint256"
        }
      ],
      "name": "treasuryManagers",
      "outputs": [
        {
          "name": "",
          "type": "address"
        }
      ],
      "payable": false,
      "type": "function"
    },
    {
      "constant": false,
      "inputs": [
        {
          "name": "target",
          "type": "address"
        },
        {
          "name": "isLimited",
          "type": "bool"
        }
      ],
      "name": "setLimited",
      "outputs": [],
      "payable": false,
      "type": "function"
    },
    {
      "constant": false,
      "inputs": [
        {
          "name": "newName",
          "type": "string"
        }
      ],
      "name": "setName",
      "outputs": [],
      "payable": false,
      "type": "function"
    },
    {
      "constant": false,
      "inputs": [
        {
          "name": "newId",
          "type": "string"
        }
      ],
      "name": "changeId",
      "outputs": [],
      "payable": false,
      "type": "function"
    },
    {
      "inputs": [],
      "type": "constructor"
    },
    {
      "payable": false,
      "type": "fallback"
    },
    {
      "anonymous": false,
      "inputs": [
        {
          "indexed": true,
          "name": "from",
          "type": "address"
        },
        {
          "indexed": true,
          "name": "to",
          "type": "address"
        },
        {
          "indexed": false,
          "name": "shares",
          "type": "uint256"
        }
      ],
      "name": "Transfer",
      "type": "event"
    },
    {
      "anonymous": false,
      "inputs": [
        {
          "indexed": true,
          "name": "who",
          "type": "address"
        },
        {
          "indexed": false,
          "name": "to",
          "type": "string"
        }
      ],
      "name": "ChangedName",
      "type": "event"
    },
    {
      "anonymous": false,
      "inputs": [
        {
          "indexed": true,
          "name": "who",
          "type": "address"
        },
        {
          "indexed": false,
          "name": "to",
          "type": "string"
        }
      ],
      "name": "ChangedId",
      "type": "event"
    },
    {
      "anonymous": false,
      "inputs": [
        {
          "indexed": true,
          "name": "who",
          "type": "address"
        }
      ],
      "name": "Resigned",
      "type": "event"
    },
    {
      "anonymous": false,
      "inputs": [
        {
          "indexed": true,
          "name": "who",
          "type": "address"
        },
        {
          "indexed": false,
          "name": "limited",
          "type": "bool"
        }
      ],
      "name": "SetLimited",
      "type": "event"
    },
    {
      "anonymous": false,
      "inputs": [
        {
          "indexed": true,
          "name": "newIndustry",
          "type": "string"
        }
      ],
      "name": "SetIndustry",
      "type": "event"
    },
    {
      "anonymous": false,
      "inputs": [
        {
          "indexed": true,
          "name": "newHome",
          "type": "string"
        }
      ],
      "name": "SetHome",
      "type": "event"
    },
    {
      "anonymous": false,
      "inputs": [
        {
          "indexed": true,
          "name": "newName",
          "type": "string"
        }
      ],
      "name": "SetName",
      "type": "event"
    },
    {
      "anonymous": false,
      "inputs": [
        {
          "indexed": true,
          "name": "manager",
          "type": "address"
        }
      ],
      "name": "AddedManager",
      "type": "event"
    }
  ],
  "bytecode": "0x60a060405260096060527f546f6b656e20302e310000000000000000000000000000000000000000000000608052600080548180527f546f6b656e20302e31000000000000000000000000000000000000000000001282556100b3907f290decd9548b62a8d60345a988386fc84ba6bc95484008f6362f93160ef3e563602060026001841615610100026000190190931692909204601f01919091048101905b8082111561014f576000815560010161009f565b505061271060035560408051808201909152601c81527f504c2031382c20333031303120466f727373612c2046494e4c414e44000000006020918201908152600480546000829052915160ff191660381781559161015391601f6002610100600184161502600019019092169190910401047f8a35acfbc15ff81a39ae7d344fd709f28e8600b4aa8c65c6b64bfe7fe36bd19b9081019061009f565b5090565b505060408051606081018252603081527f3634313930204d75752070616e6b6b69746f696d696e7461202f2046696e616e60208083019182527f6369616c2073657276696365206e656300000000000000000000000000000000938301939093526005805460008290526061825590937f036b6384b5eca791c62761152d0c79bb0604c104a5fb6f4eb0703f3154bb3db060026001841615610100026000190190931692909204601f01048101926050015b82811115610223578251826000505591602001919060010190610205565b5061022f92915061009f565b505060408051808201909152600981527f436f696e696120567900000000000000000000000000000000000000000000006020918201908152600780546000829052915160ff19166012178155916102c591601f6002600019610100600185161502019092169190910401047fa66cc928b5edb82af9bd49922954155ab7b0942694bea4ce44661d9a8736c6889081019061009f565b505060408051808201909152600381527f43494100000000000000000000000000000000000000000000000000000000006020918201908152600880546000829052915160ff191660061781559161035b91601f6002600019610100600185161502019092169190910401047ff3f7a9fe364faab93b216da50a3214154f22a0a2b415b23a84c8169e8b636ee39081019061009f565b50506009805460ff19169055604080516007805460a06020601f60026000196101006001871615020190941693909304928301819004028401810190945260808301818152929384939291908401828280156103f85780601f106103cd576101008083540402835291602001916103f8565b820191906000526020600020905b8154815290600101906020018083116103db57829003601f168201915b5050509183525050604080518082018252600981527f323735353739372d3600000000000000000000000000000000000000000000006020828101919091528084019190915260008284018190526060909301839052600160a060020a0330168352600681529082208351805182548386529484902092948594601f600260001961010060018616150201909316929092048201819004850194929301908390106104b657805160ff19168380011785555b506104e692915061009f565b828001600101855582156104aa579182015b828111156104aa5782518260005055916020019190600101906104c8565b50506020820151816001016000509080519060200190828054600181600116156101000203166002900490600052602060002090601f016020900481019282601f1061054557805160ff19168380011785555b5061057592915061009f565b82800160010185558215610539579182015b82811115610539578251826000505591602001919060010190610557565b5050604082810151600280840191909155606093840151600393840180547f01000000000000000000000000000000000000000000000000000000000000009283029290920460ff19909216919091179055815160c081018352600a608082019081527f436f696e6961204fc39c0000000000000000000000000000000000000000000060a0830152815282518084018452600881527f3134313131303232000000000000000000000000000000000000000000000000602082810191909152808301919091529354818401526000948101859052600160a060020a03331685526006845291842082518051825483885296869020949692958695601f600186161561010002600019019095169590950484018190048501949193919201908390106106b457805160ff19168380011785555b506106e492915061009f565b828001600101855582156106a8579182015b828111156106a85782518260005055916020019190600101906106c6565b50506020820151816001016000509080519060200190828054600181600116156101000203166002900490600052602060002090601f016020900481019282601f1061074357805160ff19168380011785555b5061077392915061009f565b82800160010185558215610737579182015b82811115610737578251826000505591602001919060010190610755565b5050604082015160028201556060909101516003909101805460ff19167f010000000000000000000000000000000000000000000000000000000000000092830292909204919091179055611488806107cc6000396000f3606060405236156100fb5760e060020a600035046306fdde03811461010857806308aa62c41461016d5780630a9af1c5146101d25780631394f2161461024857806318160ddd1461027a578063313ce567146102885780633ebdb1cb146102995780635353a2d81461030f5780635a3b7e42146103855780635c2930ad146103ea57806369652fcf1461041957806370a082311461047c57806388b3a538146104b257806395d89b41146104e45780639fa92f9d14610549578063a333658f146105ae578063a9059cbb146105e0578063ac1864b814610615578063bf362a2c14610647578063c47f00271461067c578063da9ab565146106f2575b3461000257610768610002565b346100025761076a60078054604080516020601f600260001961010060018816150201909516949094049384018190048102820181019092528281529291908301828280156109495780601f1061091e57610100808354040283529160200191610949565b346100025761076a60058054604080516020601f600260001961010060018816150201909516949094049384018190048102820181019092528281529291908301828280156109495780601f1061091e57610100808354040283529160200191610949565b34610002576107686004808035906020019082018035906020019191908080601f01602080910402602001604051908101604052809392919081815260200183838082843750949650505050505050600160a060020a033316600090815260066020526040902060020154151561095157610002565b3461000257610768600435600160a060020a0333166000908152600660205260409020600201541515610a8157610002565b34610002576104a060035481565b34610002576107d860095460ff1681565b34610002576107686004808035906020019082018035906020019191908080601f01602080910402602001604051908101604052809392919081815260200183838082843750949650505050505050600160a060020a0333166000908152600660205260409020600201541515610b4c57610002565b34610002576107686004808035906020019082018035906020019191908080601f01602080910402602001604051908101604052809392919081815260200183838082843750949650505050505050600160a060020a0333166000908152600660205260409020600201541515610c6857610002565b346100025761076a60008054604080516020601f600260001961010060018816150201909516949094049384018190048102820181019092528281529291908301828280156109495780601f1061091e57610100808354040283529160200191610949565b34610002576107ee60043560066020526000908152604090206002810154600382015460018301919060ff1684565b3461000257610768600160a060020a0333166000908152600660205260409020546002600019610100600184161502019091160415806104725750600160a060020a033316600090815260066020526040812060020154115b15610da157610002565b3461000257600160a060020a03600435166000908152600660205260409020600201545b60408051918252519081900360200190f35b346100025761090260043560018054829081101561000257600091825260209091200154600160a060020a0316905081565b346100025761076a60088054604080516020601f600260001961010060018816150201909516949094049384018190048102820181019092528281529291908301828280156109495780601f1061091e57610100808354040283529160200191610949565b346100025761076a60048054604080516020601f600260001961010060018816150201909516949094049384018190048102820181019092528281529291908301828280156109495780601f1061091e57610100808354040283529160200191610949565b3461000257610768600435600160a060020a0333166000908152600660205260409020600201541515610f8a57610002565b3461000257610768600435602435600160a060020a0333166000908152600660205260409020600201541515610fe657610002565b346100025761090260043560028054829081101561000257600091825260209091200154600160a060020a0316905081565b3461000257610768600435602435600160a060020a03331660009081526006602052604090206002015415156110f257610002565b34610002576107686004808035906020019082018035906020019191908080601f01602080910402602001604051908101604052809392919081815260200183838082843750949650505050505050600160a060020a033316600090815260066020526040902060020154151561118857610002565b34610002576107686004808035906020019082018035906020019191908080601f01602080910402602001604051908101604052809392919081815260200183838082843750949650505050505050600160a060020a033316600090815260066020526040902060020154151561134157610002565b005b60405180806020018281038252838181518152602001915080519060200190808383829060006004602084601f0104600302600f01f150905090810190601f1680156107ca5780820380516001836020036101000a031916815260200191505b509250505060405180910390f35b6040805160ff9092168252519081900360200190f35b60408051908101839052811515606082015260808082528554600260001961010060018416150201909116049082018190528190602082019060a08301908890801561087b5780601f106108505761010080835404028352916020019161087b565b820191906000526020600020905b81548152906001019060200180831161085e57829003601f168201915b50508381038252865460026000196101006001841615020190911604808252602090910190879080156108ef5780601f106108c4576101008083540402835291602001916108ef565b820191906000526020600020905b8154815290600101906020018083116108d257829003601f168201915b5050965050505050505060405180910390f35b60408051600160a060020a039092168252519081900360200190f35b820191906000526020600020905b81548152906001019060200180831161092c57829003601f168201915b505050505081565b600160a060020a03331660009081526006602052604090206003015460ff1615156001141561097f57610002565b8060056000509080519060200190828054600181600116156101000203166002900490600052602060002090601f016020900481019282601f106109e657805160ff19168380011785555b50610a169291505b80821115610a7d57600081556001016109d2565b828001600101855582156109ca579182015b828111156109ca5782518260005055916020019190600101906109f8565b505080604051808280519060200190808383829060006004602084601f0104600302600f01f15090500191505060405180910390207f47085958db908aebe1032cf757754845d4e8a3ccd20f9fdf865c5057094c143560405180905060405180910390a250565b5090565b600160a060020a03331660009081526006602052604090206003015460ff16151560011415610aaf57610002565b600180548082018083558281838015829011610adc57600083815260209020610adc9181019083016109d2565b5050506000928352506020822001805473ffffffffffffffffffffffffffffffffffffffff19166c0100000000000000000000000084810204179055604051600160a060020a038316917f019f8e268b1a21bed916c74ef5edbe7159704da5aa08da1d00e923632582472091a250565b600160a060020a03331660009081526006602052604090206003015460ff16151560011415610b7a57610002565b8060046000509080519060200190828054600181600116156101000203166002900490600052602060002090601f016020900481019282601f10610bd157805160ff19168380011785555b50610c019291506109d2565b82800160010185558215610bc5579182015b82811115610bc5578251826000505591602001919060010190610be3565b505080604051808280519060200190808383829060006004602084601f0104600302600f01f15090500191505060405180910390207f4920ff1548cd1a6b5309072b217e8622ce4f444a407060e05496c6adf202c00e60405180905060405180910390a250565b33600160a060020a0316600090815260066020908152604082208351815482855293839020919360026001821615610100026000190190911604601f908101849004830193919291860190839010610cd357805160ff19168380011785555b50610d039291506109d2565b82800160010185558215610cc7579182015b82811115610cc7578251826000505591602001919060010190610ce5565b505033600160a060020a03167f27593eee1ab7516cd4acd34339d2548310b9eaa245fb83c6dbff276c6d58ef928260405180806020018281038252838181518152602001915080519060200190808383829060006004602084601f0104600302600f01f150905090810190601f168015610d915780820380516001836020036101000a031916815260200191505b509250505060405180910390a250565b604080518082018252600f81527f52657369676e6564206d656d6265720000000000000000000000000000000000602080830191825233600160a060020a03166000908152600682529384209251835484865294829020939460026001821615610100026000190190911604601f9081019290920484019390929091839010610e3d57805160ff19168380011785555b50610e6d9291506109d2565b82800160010185558215610e31579182015b82811115610e31578251826000505591602001919060010190610e4f565b5050604060405190810160405280600f81526020017f52657369676e6564206d656d62657200000000000000000000000000000000008152602001506006600050600033600160a060020a031681526020019081526020016000206000506001016000509080519060200190828054600181600116156101000203166002900490600052602060002090601f016020900481019282601f10610f2257805160ff19168380011785555b50610f529291506109d2565b82800160010185558215610f16579182015b82811115610f16578251826000505591602001919060010190610f34565b5050604051600160a060020a033316907fa6674aa33cd1b7435474751667707bf05fde99e537d67043ec5f907782577d8690600090a2565b600160a060020a03331660009081526006602052604090206003015460ff16151560011415610fb857610002565b60028054600181018083558281838015829011610adc57600083815260209020610adc9181019083016109d2565b80158061100e5750600160a060020a0333166000908152600660205260409020600201548190105b1561101857610002565b600160a060020a033381166000908152600660205260408082206002908101805486900390559285168252812090910154111561107557600160a060020a03821660009081526006602052604090206002018054820190556110a3565b600160a060020a038216600090815260066020526040902060028101829055600301805460ff191660011790555b81600160a060020a031633600160a060020a03167fddf252ad1be2c89b69c2b068fc378daa952ba7f163c4a11628f55a4df523b3ef836040518082815260200191505060405180910390a35050565b600160a060020a03331660009081526006602052604090206003015460ff1615156001141561112057610002565b600160a060020a038216600081815260066020908152604091829020600301805460ff191660f860020a868102041790558151841515815291517f2975c690e3a9662f4c7b99b3ae22e28e0fddc90497d07fa4682c4aa7d456939c9281900390910190a25050565b600160a060020a03331660009081526006602052604090206003015460ff161515600114156111b657610002565b30600160a060020a0316600090815260066020908152604082208351815482855293839020919360026001821615610100026000190190911604601f90810184900483019391929186019083901061122157805160ff19168380011785555b506112519291506109d2565b82800160010185558215611215579182015b82811115611215578251826000505591602001919060010190611233565b50508060076000509080519060200190828054600181600116156101000203166002900490600052602060002090601f016020900481019282601f106112aa57805160ff19168380011785555b506112da9291506109d2565b8280016001018555821561129e579182015b8281111561129e5782518260005055916020019190600101906112bc565b505080604051808280519060200190808383829060006004602084601f0104600302600f01f15090500191505060405180910390207f4df9dcd34ae35f40f2c756fd8ac83210ed0b76d065543ee73d868aec7c7fcf0260405180905060405180910390a250565b806006600050600033600160a060020a031681526020019081526020016000206000506001016000509080519060200190828054600181600116156101000203166002900490600052602060002090601f016020900481019282601f106113bb57805160ff19168380011785555b506113eb9291506109d2565b828001600101855582156113af579182015b828111156113af5782518260005055916020019190600101906113cd565b505033600160a060020a03167f3e0448c2a2388aabf6c8647de2764f7d8636dbfc75fff2ec66d94ea980bf7c428260405180806020018281038252838181518152602001915080519060200190808383829060006004602084601f0104600302600f01f150905090810190601f168015610d915780820380516001836020036101000a03191681526020019150509250505060405180910390a25056",
  "compiler": {
    "name": "solc",
    "version": "0.4.4+commit.4633f3de.Emscripten.clang"
  },
  "schemaVersion": "3.4.16",
  "updatedAt": "2024-06-26T14:59:02.022Z"
}